:100000000C942A000C943F000C943F000C943F0089
:100010000C943F000C943F000C943F000C943F0064
:100020000C943F000C943F000C943F000C943F0054
:100030000C943F000C943F000C943F000C943F0044
:100040000C943F000C943F000C943F000C943F0034
:100050000C943F0011241FBECFE5D8E0DEBFCDBF1A
:1000600010E0A0E6B0E0EEE2FFE102C005900D92E4
:10007000A83AB107D9F70E94EF0E0C94950F0C9493
:100080000000EF92FF920F931F937B018C0120E001
:1000900030E040E05FE40E94410388238CF0C80117
:1000A000B70120E030E040E05FE40E94B9010E9427
:1000B000A1039B01AC01205030404040504806C095
:1000C000C801B7010E94A1039B01AC01B901CA019B
:1000D0001F910F91FF90EF900895A0E0B0E0E3E74B
:1000E000F0E00C945E0FDC012B01FA019C91923040
:1000F00008F439C1EB018881823008F433C19430AF
:1001000069F4843009F02FC111969C91119789816F
:10011000981709F428C1A0E6B0E025C1843009F49D
:1001200021C18230A9F4923009F01DC19A01AD01BC
:1001300088E0EA010990AE01E90109929E0181502F
:10014000C1F7E201898111969C918923818308C1BD
:10015000923009F407C112962D903C901397EB0151
:100160008A819B811496AD90BD90CD90DC901797BD
:10017000EC80FD800E811F819101281B390BB90194
:1001800037FF04C066277727621B730B6032710547
:100190000CF061C0121613066CF537014801062EEB
:1001A00004C096948794779467940A94D2F721E0D8
:1001B00030E040E050E004C0220F331F441F551FC1
:1001C0006A95D2F721503040404050402E213F21C7
:1001D00040235123211531054105510521F021E02E
:1001E00030E040E050E079018A01E628F72808294C
:1001F00019293CC0232BD1F1260E371E35014601AB
:10020000062E04C096948794779467940A94D2F744
:1002100021E030E040E050E004C0220F331F441FD3
:10022000551F6A95D2F721503040404050402A2156
:100230003B214C215D21211531054105510521F05E
:1002400021E030E040E050E059016A01A628B728DB
:10025000C828D9280BC0821593052CF01C01AA24AC
:10026000BB24650103C0EE24FF24870111969C91F5
:10027000D20111968C91981709F445C0992339F051
:10028000A80197012A193B094C095D0906C0A6017E
:1002900095012E193F09400B510B57FD08C01182E3
:1002A0003382228224833583468357831DC081E0B5
:1002B00081833382228288279927DC01821B930B5A
:1002C000A40BB50B84839583A683B7830DC0220F3F
:1002D000331F441F551F24833583468357838281F0
:1002E000938101979383828324813581468157814D
:1002F000DA01C9010197A109B1098F5F9F4FAF4F83
:10030000BF4328F30BC0918333822282EA0CFB1C8B
:100310000C1D1D1DE482F5820683178383E0808314
:10032000248135814681578157FF1AC0C901AA2708
:1003300097FDA095BA2F81709070A070B0705695FF
:10034000479537952795822B932BA42BB52B848328
:100350009583A683B7838281938101969383828359
:10036000DF0101C0D201CD01CDB7DEB7E2E10C94CF
:100370007A0FA0E2B0E0EFEBF1E00C946A0F698332
:100380007A838B839C832D833E834F835887E9E058
:10039000EE2EF12CEC0EFD1ECE010196B7010E944F
:1003A000CA048E010F5E1F4FCE010596B8010E9450
:1003B000CA048A8991E089278A8BC701B801AE01F6
:1003C000475E5F4F0E946D000E94F503A096E6E035
:1003D0000C94860FA0E2B0E0E0EFF1E00C946A0F1D
:1003E00069837A838B839C832D833E834F835887D5
:1003F000F9E0EF2EF12CEC0EFD1ECE010196B701B7
:100400000E94CA048E010F5E1F4FCE010596B801EF
:100410000E94CA04C701B801AE01475E5F4F0E9447
:100420006D000E94F503A096E6E00C94860FA0E212
:10043000B0E0EDE1F2E00C945E0F69837A838B8388
:100440009C832D833E834F835887CE010196BE0146
:10045000675F7F4F0E94CA04CE010596BE016F5EA2
:100460007F4F0E94CA049985923088F08989823032
:10047000C8F0943019F4823051F404C0843029F467
:10048000923081F480E690E0C6C0923049F420E0DA
:100490009A858A89981321E02A87CE010996BBC0E4
:1004A000823049F420E09A858A89981321E02A8BCA
:1004B000CE014196B0C02D843E844F8458886D880B
:1004C0007E888F88988CEE24FF248701AA24BB2481
:1004D000650140E050E060E070E0E0E0F0E0C10184
:1004E00081709070892BE9F0E60CF71C081D191D2E
:1004F0009A01AB012A0D3B1D4C1D5D1D80E090E073
:10050000A0E0B0E0E614F7040805190520F481E046
:1005100090E0A0E0B0E0BA01A901480F591F6A1F9E
:100520007B1FAA0CBB1CCC1CDD1C97FE08C081E005
:1005300090E0A0E0B0E0A82AB92ACA2ADB2A3196C6
:10054000E032F10549F0660C771C881C991C569422
:10055000479437942794C3CFFA85EA892B893C893D
:100560008B859C85280F391F2E5F3F4F17C0CA010E
:1005700081709070892B61F016950795F794E79438
:1005800080E090E0A0E0B0E8E82AF92A0A2B1B2BD3
:1005900076956795579547952F5F3F4F77FDE7CF46
:1005A0000CC0440F551F661F771F17FD4160EE0CEE
:1005B000FF1C001F111F21503040403090E05907B0
:1005C00090E0690790E4790760F32B8F3C8FDB01A3
:1005D000CA018F779070A070B07080349105A1052A
:1005E000B10561F447FD0AC0E114F10401051105EC
:1005F00029F0405C5F4F6F4F7F4F40781A8EFE1797
:1006000011F081E08A8F4D8F5E8F6F8F78A383E02A
:10061000898FCE0149960E94F503A096E2E10C94E1
:100620007A0FA8E1B0E0E7E1F3E00C946A0F698388
:100630007A838B839C832D833E834F83588789E005
:10064000E82EF12CEC0EFD1ECE010196B7010E94A2
:10065000CA048E010F5E1F4FCE010596B8010E949D
:10066000CA048985823040F08989823028F0C70128
:10067000B8010E94420501C08FEF6896E6E00C9435
:10068000860FA8E1B0E0E7E4F3E00C946A0F698319
:100690007A838B839C832D833E834F83588789E0A5
:1006A000E82EF12CEC0EFD1ECE010196B7010E9442
:1006B000CA048E010F5E1F4FCE010596B8010E943D
:1006C000CA048985823040F08989823028F0C701C8
:1006D000B8010E94420501C08FEF6896E6E00C94D5
:1006E000860FA8E1B0E0E7E7F3E00C946A0F6983B6
:1006F0007A838B839C832D833E834F83588789E045
:10070000E82EF12CEC0EFD1ECE010196B7010E94E1
:10071000CA048E010F5E1F4FCE010596B8010E94DC
:10072000CA048985823040F08989823028F0C70167
:10073000B8010E94420501C081E06896E6E00C9491
:10074000860FACE0B0E0E7EAF3E00C946E0F69834B
:100750007A838B839C83CE010196BE016B5F7F4FB2
:100760000E94CA048D81823061F1823050F1843060
:1007700021F48E81882351F12EC02F81388537FDD9
:1007800020C06E812F3131051CF06623F9F023C0A3
:100790008EE190E0821B930B29853A854B855C8521
:1007A00004C056954795379527958A95D2F76623C5
:1007B000B1F050954095309521953F4F4F4F5F4F89
:1007C0000EC020E030E040E050E009C02FEF3FEFE6
:1007D0004FEF5FE704C020E030E040E050E8B901AF
:1007E000CA012C96E2E00C948A0FDF92EF92FF92FE
:1007F0000F931F93FC01E480F58006811781D1805F
:100800008081823048F480E090E0A0E1B0E0E82A06
:10081000F92A0A2B1B2BA5C0843009F49FC0823013
:1008200021F4EE24FF24870105C0E114F104010541
:10083000110519F4E0E0F0E096C0628173819FEF4A
:10084000623879070CF05BC022E83FEF261B370BBC
:100850002A3131052CF020E030E040E050E02AC0A1
:10086000B801A701022E04C0769567955795479564
:100870000A94D2F781E090E0A0E0B0E004C0880FD5
:10088000991FAA1FBB1F2A95D2F70197A109B10989
:100890008E219F21A023B1230097A105B10521F04E
:1008A00081E090E0A0E0B0E09A01AB01282B392B69
:1008B0004A2B5B2BDA01C9018F779070A070B07062
:1008C00080349105A105B10539F427FF09C0205CEA
:1008D0003F4F4F4F5F4F04C0215C3F4F4F4F5F4F23
:1008E000E0E0F0E02030A0E03A07A0E04A07A0E412
:1008F0005A0710F0E1E0F0E079018A0127C0603882
:10090000710564F5FB01E158FF4FD801C7018F77EE
:100910009070A070B07080349105A105B10539F4D4
:10092000E7FE0DC080E490E0A0E0B0E004C08FE3FB
:1009300090E0A0E0B0E0E80EF91E0A1F1B1F17FFB1
:1009400005C016950795F794E794319687E01695BC
:100950000795F794E7948A95D1F705C0EE24FF2414
:100960008701EFEFF0E06E2F679566276795902F70
:100970009F77D794DD24D7948E2F8695492F462BC9
:10098000582F5D29B701CA011F910F91FF90EF9079
:10099000DF900895FC01DB01408151812281622FAB
:1009A0006F7770E0221F2227221F9381892F880FE3
:1009B000822B282F30E0991F9927991F11969C931D
:1009C000119721153105A9F54115510561057105ED
:1009D00011F482E037C082E89FEF13969C938E93C8
:1009E00012979A01AB0167E0220F331F441F551F76
:1009F0006A95D1F783E08C930DC0220F331F441FFB
:100A0000551F12968D919C911397019713969C9365
:100A10008E931297203080E0380780E0480780E40A
:100A2000580758F314962D933D934D935C93179765
:100A300008952F3F310579F4411551056105710580
:100A400019F484E08C93089564FF03C081E08C93D3
:100A500012C01C9210C02F57304013963C932E9317
:100A6000129783E08C9387E0440F551F661F771F12
:100A70008A95D1F7706414964D935D936D937C9332
:100A8000179708951F93DC01FB019C91923008F4A5
:100A900047C08081823008F443C0943051F41196ED
:100AA0001C91843099F58181682F70E0611B710978
:100AB0003FC0843021F0923031F48230B9F181812D
:100AC000882389F12DC011961C9111978230F1F085
:100AD00081811817D9F412962D913C911397828138
:100AE00093818217930794F028173907BCF0149666
:100AF0008D919D910D90BC91A02D248135814681D1
:100B00005781281739074A075B0718F4112341F06A
:100B10000AC082179307A407B50740F4112319F000
:100B200061E070E005C06FEF7FEF02C060E070E051
:100B3000CB011F910895DF93CF93CDB7DEB7EAE3E2
:100B4000F0E08FEF8083E7E3F0E08FEF8083E4E372
:100B5000F0E08FEF8083E1E3F0E08FEF8083EBE361
:100B6000F0E01082E8E3F0E01082E5E3F0E01082CC
:100B7000E2E3F0E01082CF91DF910895DF93CF930D
:100B8000CDB7DEB72E970FB6F894DEBF0FBECDBF40
:100B90008A836B834C8319828A81843008F00FC169
:100BA0008B81883008F00BC18C81813021F08C81E1
:100BB000882309F004C18A81282F30E03E872D87E1
:100BC0008D859E858130910509F44FC02D853E8528
:100BD000223031052CF48D859E85009771F0ECC094
:100BE0002D853E852230310509F477C08D859E859F
:100BF0008330910509F4A9C0DFC08C81282F30E033
:100C00003C872B878B859C850097D1F02B853C8575
:100C10002130310509F0D5C0AAE3B0E0EAE3F0E005
:100C20008081482F8B81282F30E081E090E0022ED8
:100C300002C0880F991F0A94E2F7842B8C93C1C0DD
:100C4000AAE3B0E0EAE3F0E08081482F8B81282F0F
:100C500030E081E090E0022E02C0880F991F0A94D4
:100C6000E2F7809584238C93ACC08C81282F30E0F0
:100C70003A87298789859A850097D1F029853A8511
:100C80002130310509F09DC0A7E3B0E0E7E3F0E0D3
:100C90008081482F8B81282F30E081E090E0022E68
:100CA00002C0880F991F0A94E2F7842B8C9389C0A5
:100CB000A7E3B0E0E7E3F0E08081482F8B81282FA5
:100CC00030E081E090E0022E02C0880F991F0A9464
:100CD000E2F7809584238C9374C08C81282F30E0B8
:100CE00038872F838F8198850097D1F02F813885A1
:100CF0002130310509F065C0A4E3B0E0E4E3F0E0A1
:100D00008081482F8B81282F30E081E090E0022EF7
:100D100002C0880F991F0A94E2F7842B8C9351C06C
:100D2000A4E3B0E0E4E3F0E08081482F8B81282F3A
:100D300030E081E090E0022E02C0880F991F0A94F3
:100D4000E2F7809584238C933CC08C81282F30E07F
:100D50003E832D838D819E810097C9F02D813E8138
:100D60002130310571F5A1E3B0E0E1E3F0E08081ED
:100D7000482F8B81282F30E081E090E0022E02C0C6
:100D8000880F991F0A94E2F7842B8C931AC0A1E371
:100D9000B0E0E1E3F0E08081482F8B81282F30E044
:100DA00081E090E0022E02C0880F991F0A94E2F7BA
:100DB000809584238C9305C082E0898302C082E001
:100DC000898389812E960FB6F894DEBF0FBECDBF02
:100DD000CF91DF910895DF93CF93CDB7DEB72E97F4
:100DE0000FB6F894DEBF0FBECDBF8A836B834C83F2
:100DF00019828B81883008F00DC18A81282F30E05C
:100E00003E872D878D859E858130910509F451C0DF
:100E10002D853E85223031052CF48D859E850097E9
:100E200071F0F5C02D853E852230310509F47BC077
:100E30008D859E858330910509F4AFC0E8C08C8113
:100E4000282F30E03C872B878B859C850097C9F045
:100E50002B853C852130310549F5ABE3B0E0EBE370
:100E6000F0E08081482F8B81282F30E081E090E0F6
:100E7000022E02C0880F991F0A94E2F7842B8C93EC
:100E8000CBC0ABE3B0E0EBE3F0E08081482F8B8197
:100E9000282F30E081E090E0022E02C0880F991FD9
:100EA0000A94E2F7809584238C93B6C082E089830C
:100EB000B3C08C81282F30E03A87298789859A85AD
:100EC0000097C9F029853A852130310549F5A8E315
:100ED000B0E0E8E3F0E08081482F8B81282F30E0FC
:100EE00081E090E0022E02C0880F991F0A94E2F779
:100EF000842B8C9391C0A8E3B0E0E8E3F0E080811C
:100F0000482F8B81282F30E081E090E0022E02C034
:100F1000880F991F0A94E2F7809584238C937CC0F4
:100F200082E0898379C08C81282F30E038872F8335
:100F30008F8198850097C9F02F8138852130310540
:100F400049F5A5E3B0E0E5E3F0E08081482F8B812F
:100F5000282F30E081E090E0022E02C0880F991F18
:100F60000A94E2F7842B8C9357C0A5E3B0E0E5E345
:100F7000F0E08081482F8B81282F30E081E090E0E5
:100F8000022E02C0880F991F0A94E2F780958423ED
:100F90008C9342C082E089833FC08C81282F30E04F
:100FA0003E832D838D819E810097C9F02D813E81E6
:100FB0002130310549F5A2E3B0E0E2E3F0E08081C1
:100FC000482F8B81282F30E081E090E0022E02C074
:100FD000880F991F0A94E2F7842B8C931DC0A2E31B
:100FE000B0E0E2E3F0E08081482F8B81282F30E0F1
:100FF00081E090E0022E02C0880F991F0A94E2F768
:10100000809584238C9308C082E0898305C082E0A8
:10101000898302C082E0898389812E960FB6F89475
:10102000DEBF0FBECDBFCF91DF910895DF93CF9389
:10103000CDB7DEB728970FB6F894DEBF0FBECDBF91
:101040008B836C835E834D831A828B81843008F09E
:10105000A2C08C81883008F09EC08D819E8100974F
:1010600009F499C08B81282F30E038872F834F8176
:10107000588541305105A9F18F81988582309105BD
:1010800034F42F8138852115310571F081C04F81ED
:1010900058854230510509F441C08F8198858330CD
:1010A000910509F458C074C0E9E3F0E08081282F6D
:1010B00030E08C81882F90E0A90102C055954795BA
:1010C0008A95E2F7CA01817089838981882321F496
:1010D000ED81FE81108261C0ED81FE8181E080831F
:1010E0005CC0E6E3F0E08081282F30E08C81882F1F
:1010F00090E0A90102C0559547958A95E2F7CA018B
:10110000817089838981882321F4ED81FE81108299
:1011100044C0ED81FE8181E080833FC0E3E3F0E0E5
:101120008081282F30E08C81882F90E0A90102C0B7
:10113000559547958A95E2F7CA018170898389811F
:10114000882321F4ED81FE81108227C0ED81FE818C
:1011500081E0808322C0E0E3F0E08081282F30E04E
:101160008C81882F90E0A90102C0559547958A95FA
:10117000E2F7CA01817089838981882321F4ED8196
:10118000FE8110820AC0ED81FE8181E0808305C06E
:1011900082E08A8302C083E08A838A8128960FB620
:1011A000F894DEBF0FBECDBFCF91DF910895DF93DE
:1011B000CF93CDB7DEB72D970FB6F894DEBF0FBE35
:1011C000CDBF8A836B8319828B81813021F08B8123
:1011D000882309F080C08A81282F30E03D872C8742
:1011E0008C859D858130910571F12C853D8522305E
:1011F00031052CF48C859D85009769F069C02C859C
:101200003D8522303105B1F18C859D858330910576
:1012100009F447C05DC08B81282F30E03B872A87C7
:101220008A859B85009759F02A853B8521303105B9
:1012300009F053C0EAE3F0E08FEF80834EC0EAE3A9
:10124000F0E010824AC08B81282F30E03987288750
:1012500088859985009751F0288539852130310599
:10126000E1F5E7E3F0E08FEF808337C0E7E3F0E0FC
:10127000108233C08B81282F30E03F832E838E81F4
:101280009F81009751F02E813F812130310529F552
:10129000E4E3F0E08FEF808320C0E4E3F0E010822D
:1012A0001CC08B81282F30E03D832C838C819D8155
:1012B000009751F02C813D812130310571F4E1E33B
:1012C000F0E08FEF808309C0E1E3F0E0108205C019
:1012D00082E0898302C082E0898389812D960FB6DE
:1012E000F894DEBF0FBECDBFCF91DF910895DF939D
:1012F000CF9300D000D00F92CDB7DEB78A836B8337
:1013000019828A81282F30E03D832C838C819D8136
:1013100081309105D1F02C813D81223031052CF4B2
:101320008C819D81009761F01FC02C813D8122300E
:10133000310581F08C819D818330910581F014C04D
:10134000EBE3F0E08B81808311C0E8E3F0E08B8178
:1013500080830CC0E5E3F0E08B81808307C0E2E38B
:10136000F0E08B81808302C082E0898389810F90C5
:101370000F900F900F900F90CF91DF910895DF9312
:10138000CF9300D000D000D0CDB7DEB78A837C8366
:101390006B8319828B819C81009709F43EC08A81FE
:1013A000282F30E03E832D838D819E8181309105F1
:1013B000E1F02D813E81223031052CF48D819E811A
:1013C000009761F027C02D813E8122303105A1F0C8
:1013D0008D819E8183309105B1F01CC0E9E3F0E07E
:1013E0008081EB81FC8180831AC0E6E3F0E080819C
:1013F000EB81FC81808313C0E3E3F0E08081EB812B
:10140000FC8180830CC0E0E3F0E08081EB81FC8113
:10141000808305C082E0898302C082E0898389815C
:1014200026960FB6F894DEBF0FBECDBFCF91DF91E9
:101430000895DF93CF93CDB7DEB7E8970FB6F89452
:10144000DEBF0FBECDBF80E090E0ACE0B2E48DAB7C
:101450009EABAFABB8AF6DA97EA98FA998AD20E0C8
:1014600030E04AEF54E40E941702DC01CB0189AB63
:101470009AABABABBCAB69A97AA98BA99CA920E0BC
:1014800030E040E85FE30E94710388232CF481E0A0
:1014900090E098AB8FA73FC069A97AA98BA99CA9B6
:1014A00020E03FEF4FE757E40E94110318164CF578
:1014B0006DA97EA98FA998AD20E030E040E251E40B
:1014C0000E941702DC01CB01BC01CD010E9441004A
:1014D000DC01CB0198AB8FA70FC088EC90E09EA7F2
:1014E0008DA78DA59EA50197F1F79EA78DA78FA526
:1014F00098A9019798AB8FA78FA598A9009769F72E
:1015000014C069A97AA98BA99CA90E944100DC0199
:10151000CB0198AB8FA78FA598A99CA78BA78BA56C
:101520009CA50197F1F79CA78BA788E30E94000C6C
:1015300080E090E0A0E2B2E48FA398A7A9A7BAA7A1
:101540006FA178A589A59AA520E030E04AEF54E480
:101550000E941702DC01CB018BA39CA3ADA3BEA309
:101560006BA17CA18DA19EA120E030E040E85FE36B
:101570000E94710388232CF481E090E09AA389A350
:101580003FC06BA17CA18DA19EA120E03FEF4FE762
:1015900057E40E94110318164CF56FA178A589A590
:1015A0009AA520E030E040E251E40E941702DC01FD
:1015B000CB01BC01CD010E944100DC01CB019AA30B
:1015C00089A30FC088EC90E098A38F8F8F8D98A18E
:1015D0000197F1F798A38F8F89A19AA101979AA3F8
:1015E00089A389A19AA1009769F714C06BA17CA176
:1015F0008DA19EA10E944100DC01CB019AA389A389
:1016000089A19AA19E8F8D8F8D8D9E8D0197F1F767
:101610009E8F8D8F8FE00E94000C80E090E0A0E212
:10162000B2E4898F9A8FAB8FBC8F698D7A8D8B8D49
:101630009C8D20E030E04AEF54E40E941702DC0168
:10164000CB018D8B9E8BAF8BB88F6D897E898F89F7
:10165000988D20E030E040E85FE30E94710388232A
:101660002CF481E090E09C8B8B8B3FC06D897E8950
:101670008F89988D20E03FEF4FE757E40E941103D8
:1016800018164CF5698D7A8D8B8D9C8D20E030E09D
:1016900040E251E40E941702DC01CB01BC01CD0104
:1016A0000E944100DC01CB019C8B8B8B0FC088EC2E
:1016B00090E09A8B898B89899A890197F1F79A8BA7
:1016C000898B8B899C8901979C8B8B8B8B899C89BF
:1016D000009769F714C06D897E898F89988D0E9463
:1016E0004100DC01CB019C8B8B8B8B899C89988B77
:1016F0008F878F8598890197F1F7988B8F8781E085
:101700000E94000C80E090E0A0E0B0E48B879C8712
:10171000AD87BE876B857C858D859E8520E030E01A
:101720004AEF54E40E941702DC01CB018F839887B3
:10173000A987BA876F81788589859A8520E030E00E
:1017400040E85FE30E94710388232CF481E090E07D
:101750009E838D833FC06F81788589859A8520E03F
:101760003FEF4FE757E40E94110318164CF56B85C5
:101770007C858D859E8520E030E040E251E40E942A
:101780001702DC01CB01BC01CD010E944100DC014C
:10179000CB019E838D830FC088EC90E09C838B836C
:1017A0008B819C810197F1F79C838B838D819E8136
:1017B00001979E838D838D819E81009769F714C068
:1017C0006F81788589859A850E944100DC01CB0173
:1017D0009E838D838D819E819A83898389819A815D
:1017E0000197F1F79A83898386E00E94000CE896BE
:1017F0000FB6F894DEBF0FBECDBFCF91DF91089535
:10180000DF93CF93CDB7DEB72F970FB6F894DEBF37
:101810000FBECDBF8F8783E060E040E00E94EB0603
:1018200083E061E040E00E94EB0681E06F850E946A
:10183000770983E062E041E00E94EB0680E090E0FF
:10184000A0E8BFE38B879C87AD87BE876B857C85CF
:101850008D859E8520E030E04AEF54E40E94170217
:10186000DC01CB018F839887A987BA876F81788540
:1018700089859A8520E030E040E85FE30E947103AB
:1018800088232CF481E090E09E838D833FC06F819C
:10189000788589859A8520E03FEF4FE757E40E94DD
:1018A000110318164CF56B857C858D859E8520E08F
:1018B00030E040E251E40E941702DC01CB01BC01A0
:1018C000CD010E944100DC01CB019E838D830FC0BE
:1018D00088EC90E09C838B838B819C810197F1F74E
:1018E0009C838B838D819E8101979E838D838D81C7
:1018F0009E81009769F714C06F81788589859A85E4
:101900000E944100DC01CB019E838D838D819E81ED
:101910009A83898389819A810197F1F79A838983D0
:1019200083E062E040E00E94EB062F960FB6F89449
:10193000DEBF0FBECDBFCF91DF910895DF93CF9370
:10194000CDB7DEB72F970FB6F894DEBF0FBECDBF71
:101950008F8783E060E041E00E94EB0683E061E076
:1019600040E00E94EB0681E06F850E94770983E0EA
:1019700062E041E00E94EB0680E090E0A0E8BFE377
:101980008B879C87AD87BE876B857C858D859E8583
:1019900020E030E04AEF54E40E941702DC01CB0162
:1019A0008F839887A987BA876F81788589859A857B
:1019B00020E030E040E85FE30E94710388232CF4CC
:1019C00081E090E09E838D833FC06F81788589851B
:1019D0009A8520E03FEF4FE757E40E941103181665
:1019E0004CF56B857C858D859E8520E030E040E25E
:1019F00051E40E941702DC01CB01BC01CD010E9421
:101A00004100DC01CB019E838D830FC088EC90E008
:101A10009C838B838B819C810197F1F79C838B83C3
:101A20008D819E8101979E838D838D819E810097FC
:101A300069F714C06F81788589859A850E94410075
:101A4000DC01CB019E838D838D819E819A83898366
:101A500089819A810197F1F79A83898383E062E013
:101A600040E00E94EB062F960FB6F894DEBF0FBE43
:101A7000CDBFCF91DF910895DF93CF9300D000D0F9
:101A80000F92CDB7DEB78A836B8319828B81883240
:101A9000E8F48A81282F30E03D832C838C819D815E
:101AA0008130910531F02C813D812230310531F0BA
:101AB0000AC08B8180580E94000C0AC08B81805420
:101AC0000E94000C05C081E0898302C081E0898307
:101AD00089810F900F900F900F900F90CF91DF9111
:101AE0000895DF93CF9300D00F92CDB7DEB79B83DD
:101AF0008A8319820EC08981282F30E08A819B81D8
:101B0000FC01E20FF31F80810E949E0C89818F5F90
:101B100089838981282F30E08A819B81FC01E20F33
:101B2000F31F8081882339F70F900F900F90CF918A
:101B3000DF910895DF93CF93CDB7DEB765970FB6EA
:101B4000F894DEBF0FBECDBF898B6A8B5C8B4B8B4D
:101B50002D8B80E40E94000C188A0EC08889282FE3
:101B600030E08B899C89FC01E20FF31F80810E9489
:101B70009E0C88898F5F888B8889803478F380E811
:101B80000E94000C89896A890E943C0D1F8678C0DA
:101B90008F850E949E0C80E090E0A0EAB0E48B87E5
:101BA0009C87AD87BE876B857C858D859E8520E073
:101BB00030E04AEF54E40E941702DC01CB018F832E
:101BC0009887A987BA876F81788589859A8520E06B
:101BD00030E040E85FE30E94710388232CF481E049
:101BE00090E09E838D833FC06F81788589859A853B
:101BF00020E03FEF4FE757E40E94110318164CF521
:101C00006B857C858D859E8520E030E040E251E447
:101C10000E941702DC01CB01BC01CD010E944100F2
:101C2000DC01CB019E838D830FC088EC90E09C8308
:101C30008B838B819C810197F1F79C838B838D81B2
:101C40009E8101979E838D838D819E81009769F788
:101C500014C06F81788589859A850E944100DC01D6
:101C6000CB019E838D838D819E819A838983898117
:101C70009A810197F1F79A8389838F858F5F8F8788
:101C80009F858D89891708F083CF65960FB6F894E4
:101C9000DEBF0FBECDBFCF91DF910895DF93CF930D
:101CA000CDB7DEB729970FB6F894DEBF0FBECDBF14
:101CB0006E837F83888799871D821C828E819F8196
:101CC0009A8389838E819F81A885B9850097A10514
:101CD000B10589F480E30E949E0C48C089819A81F5
:101CE0002AE030E0B9010E944A0FCB019A83898330
:101CF0008C818F5F8C8389819A81009779F78E819F
:101D00009F819A8389831D822DC09C818D81292F7B
:101D1000281B822F982F91508AE0692F0E94BF0EB6
:101D20009C0189819A81B9010E944A0FCB018B8362
:101D30008B81805D0E949E0C9C818D81292F281BA8
:101D4000822F982F91508AE0692F0E94BF0E9C012C
:101D500089819A81B9010E944A0F9A8389838D8172
:101D60008F5F8D839D818C81981778F229960FB6AD
:101D7000F894DEBF0FBECDBFCF91DF910895DF9302
:101D8000CF9300D000D00F92CDB7DEB78C836D8398
:101D900081E090E09B838A831982198212C08C8132
:101DA000282F30E08A819B81AC01429FC001439F74
:101DB000900D529F900D11249B838A8389818F5FA0
:101DC000898399818D81981750F38A819B810F9027
:101DD0000F900F900F900F90CF91DF910895DF93A8
:101DE000CF93CDB7DEB7C554D0400FB6F894DEBF61
:101DF0000FBECDBF0E949B050E94190ACE0101961D
:101E000023969FAF8EAF2397E8E6F0E02596FFAFCD
:101E1000EEAF2597F0E42696FFAF26972596EEAD18
:101E2000FFAD2597008025968EAD9FAD2597019635
:101E300025969FAF8EAF25972396EEADFFAD2397E6
:101E4000008223968EAD9FAD2397019623969FAF78
:101E50008EAF239726969FAD2697915026969FAFDB
:101E600026972696EFAD2697EE23C1F682E061E035
:101E70000E943C0D63ED70E080E090E00E944E0E09
:101E800081E065E09E012F5F3F4FA90127E00E949E
:101E90009A0DFFCFAA1BBB1B51E107C0AA1FBB1F96
:101EA000A617B70710F0A61BB70B881F991F5A95E6
:101EB000A9F780959095BC01CD0108952F923F928E
:101EC0004F925F926F927F928F929F92AF92BF924A
:101ED000CF92DF92EF92FF920F931F93CF93DF93F6
:101EE000CDB7DEB7CA1BDB0B0FB6F894DEBF0FBE53
:101EF000CDBF09942A88398848885F846E847D84A0
:101F00008C849B84AA84B984C884DF80EE80FD80A1
:101F10000C811B81AA81B981CE0FD11D0FB6F89417
:0E1F2000DEBF0FBECDBFED010895F894FFCFD8
:101F2E0000000000000000000E0E040E15040A0A48
:101F3E0000000A0000110E000E11111F1B1B1F00C6
:101F4E0000000A15110E04000000000101011F001F
:101F5E0000000000000E110E000000000E011F0018
:081F6E0000000000000E110E3E
:00000001FF
